:020000020000FC
:020000000CC032
:100018003FC02FD000271127222730EF88279927A4
:100028000FE304B900EA0AB900005F9A5D9A112744
:10003800002705B90E9429000FEF05B90E94290081
:1000480013951530A9F709D0FFCF08E18DED9BE096
:100058000196F1F70A95D1F70895F894A8950091BB
:1000680060000861009360000FE4009360007894DA
:100078000895F894A89504B7007004BF0091600033
:1000880008610093600000E0009360007894089590
:08009800E4DF35B9329518953B
:00000001FF
